:100000000C9434000C943E000C943E000C943E0082
:100010000C943E000C943E000C943E000C943E0068
:100020000C943E000C943E000C943E000C943E0058
:100030000C943E000C943E000C943E000C943E0048
:100040000C943E000C943E000C943E000C943E0038
:100050000C943E000C943E000C943E000C943E0028
:100060000C943E000C943E0011241FBECFEFD8E04C
:10007000DEBFCDBF0E948A000C94A8000C94000043
:1000800084B18E6284B98CB581658CBD2A9A299819
:1000900008958EBD0DB407FEFDCF8EB5089595E38E
:1000A0009A95F1F700002A9895E39A95F1F70000E8
:1000B0000E94490085E38A95F1F700008FEF0E94C6
:1000C000490095E39A95F1F700002A9A08959093D4
:1000D000C500E4ECF0E0808388E18093C1008EE00D
:1000E0008093C20087E6808308958091C00087FFD7
:1000F000FCCF8091C60008959091C00095FFFCCF81
:100100008093C60008958091C00087FF0895809174
:10011000C600F9CF0E94400087E090E00E9467008F
:1001200082E40E947C008AE00E947C0087E00E94BA
:100130004F000E947C008AE00E947C002FEF89E63D
:1001400098E1215080409040E1F700C00000E8CFE6
:04015000F894FFCF51
:00000001FF
