:100000000C9434000C9451000C9451000C94510049
:100010000C9451000C9451000C9451000C9451001C
:100020000C9451000C9451000C9451000C9451000C
:100030000C9451000C9451000C9451000C945100FC
:100040000C9451000C9451000C9451000C945100EC
:100050000C9451000C9451000C9451000C945100DC
:100060000C9451000C94510011241FBECFEFD8E026
:10007000DEBFCDBF11E0A0E0B1E0ECE7F7E002C0E9
:1000800005900D92A630B107D9F721E0A6E0B1E0C6
:1000900001C01D92AA32B207E1F70E9492030C94AC
:1000A000BC030C94000084B18E6284B98CB5816568
:1000B0008CBD2A9A299808958EBD0DB407FEFDCFF8
:1000C0008EB5089595E39A95F1F700002A9895E387
:1000D0009A95F1F700000E945C0085E38A95F1F79C
:1000E00000008FEF0E945C0095E39A95F1F7000005
:1000F0002A9A0895CF92DF92EF92FF920F931F9367
:10010000CF93DF93E82EF62E6A01022F81E0E812EA
:1001100023C0862F806295E39A95F1F700002A9814
:1001200095E39A95F1F700000E945C0085E38A95BB
:10013000F1F70000D0E0C0E010E0C017D10774F084
:100140002A9A86E091E0DF91CF911F910F91FF9065
:10015000EF90DF90CF900895862FDDCFE11010C093
:1001600090EAF91669F08FEF0E945C00FE01EA5FE9
:10017000FE4F808385E38A95F1F700002196DDCF5D
:10018000F601EC0FFD1F80810E945C0095E39A95BB
:10019000F1F7F3CFCF93DF9300D000D01F92CDB70C
:1001A000DEB72FEF81EE94E0215080409040E1F7E0
:1001B00000C000002998198221E0AE014F5F5F4F17
:1001C00060E081E00E947A00198221E0AE014F5F79
:1001D0005F4F61E081E00E947A00198221E0AE0168
:1001E0004F5F5F4F62E081E00E947A0083E0898385
:1001F00021E0AE014F5F5F4F63E081E00E947A0033
:10020000198221E0AE014F5F5F4F64E081E00E9400
:100210007A00198221E0AE014F5F5F4F65E081E017
:100220000E947A008EE0898321E0AE014F5F5F4F2C
:1002300066E081E00E947A00299A0F900F900F905B
:100240000F900F90DF91CF9108950F931F93CF934D
:10025000DF9300D000D01F92CDB7DEB78C01299874
:10026000698321E0AE014F5F5F4F65E081E00E944E
:100270007A0025E0A80160E181E00E947A0080E038
:100280000E9462008260898321E0AE014F5F5F4F70
:1002900060E081E00E947A00299A0F900F900F9001
:1002A0000F900F90DF91CF911F910F9108950F93B1
:1002B0001F93CF93DF9300D000D01F92CDB7DEB74E
:1002C0008C012998698321E0AE014F5F5F4F65E0A3
:1002D00081E00E947A0082E00E946200826089834D
:1002E00021E0AE014F5F5F4F62E081E00E947A0043
:1002F00025E0A8016BE081E00E947A0080E289831A
:1003000021E0AE014F5F5F4F62E181E00E947A0021
:1003100080E00E9462008360898321E0AE014F5F2C
:100320005F4F60E081E00E947A00299A0F900F9061
:100330000F900F900F90DF91CF911F910F91089523
:10034000CF93DF93EC0187E00E94620086FF12C02A
:10035000CC0FDD1F90E0C823D923CD2B59F021E02D
:1003600040E450E067E081E00E947A0081E0DF91A4
:10037000CF91089580E0FBCF0F931F93CF93DF932E
:100380008C012A9880EA0E945C002FEF81EE94E0B5
:10039000215080409040E1F700C00000E801005E7D
:1003A0001F4F89910E945C008FE39CE90197F1F750
:1003B00000C00000C017D107A1F72A9A8FE99FE07B
:1003C0000197F1F700C0000087E10E94620084FFFE
:1003D0000BC083FD09C081EE0E945C0081E0DF91CB
:1003E000CF911F910F91089580E0F9CF0F931F9344
:1003F000CF93DF938C012A9881E60E945C002FEF57
:1004000081EE94E0215080409040E1F700C0000070
:10041000E801005E1F4F8FEF0E945C0089938FE31D
:100420009CE90197F1F700C00000C017D10799F7C8
:100430002A9A8FE99FE00197F1F700C0000082EE51
:10044000DF91CF911F910F910C945C00CF93DF93BC
:10045000EC0120E0AC0161EE80E00E947A0020E235
:10046000AE0160EA80E00E947A008FE39CE9019788
:10047000F1F700C00000299A9AE69A95F1F700C0BA
:1004800029988FE39CE90197F1F700C00000DF9104
:10049000CF910895299A2FEF83ED90E3215080406A
:1004A0009040E1F700C000002998089585E38A95FF
:1004B000F1F700002A9885E38A95F1F7000087E2BA
:1004C0000E945C0085E38A95F1F7000080E70E94B6
:1004D0005C0085E38A95F1F700002A9A08952A982E
:1004E0000E945C002FEF81EE94E02150804090400C
:1004F000E1F700C000002A9A0895CF93DF93CDB7AB
:10050000DEB7A5970FB6F894DEBF0FBECDBF87E06C
:1005100090E00E9410030E9453000E94CA0085E0F0
:10052000E0E0F1E0DE01919601900D928A95E1F70D
:100530007E0121E2E20EF11C6AE0C7010E94570130
:1005400082E40E9425038AE00E94250381E090E076
:100550000E94A001813091F4CE0101960E94F60123
:100560008E010F5F1F4FF80181918F010E942503BB
:100570000E151F05C1F78AE00E942503FFEF23ED4A
:1005800080E3F15020408040E1F700C00000D8CF68
:10059000CF93DF93CDB7DEB7A5970FB6F894DEBF44
:1005A0000FBECDBF87E090E00E9410030E94530071
:1005B0000E94CA0085E0E0E0F1E0DE019196019042
:1005C0000D928A95E1F7CE0101969E012F5D3F4F76
:1005D000182F092F48E4FC014193CF01E217F307DC
:1005E000D1F76AE00E942501812F902F0E94BC0163
:1005F000813061F484E50E9425038AE00E9425038E
:1006000083E50E9425038AE00E942503FFEF23ED86
:1006100080E3F15020408040E1F700C00000E4CFCB
:100620009093C500E4ECF0E0808388E18093C10002
:100630008EE08093C20087E6808308958091C00099
:1006400087FFFCCF8091C60008959091C00095FF70
:10065000FCCF8093C60008958091C00087FF089565
:100660008091C600F9CFAF92BF92CF92DF92EF9206
:10067000FF920F931F93CF93DF93CDB7DEB72897E9
:100680000FB6F894DEBF0FBECDBF6C01BE016F5F29
:100690007F4F7B0188E0DB011D928A95E9F78B0192
:1006A00030E020E0E1E0F0E04AE09AE0A92EB12C51
:1006B000C601BF010E949403CB010097D9F4220F19
:1006C000331F8701020F131F0E151F0519F58AE04E
:1006D00028960FB6F894DEBF0FBECDBFDF91CF9145
:1006E0001F910F91FF90EF90DF90CF90BF90AF9050
:1006F0000C942503BF01469FF001479FF00D112484
:10070000B5010E949403D8018D939D938D012F5FB5
:100710003F4FCECF02501109F8018081805D0E94C9
:100720002503D2CF0E947D0297FB072E16F400947A
:1007300007D077FD09D00E94A80307FC05D03EF43E
:10074000909581959F4F0895709561957F4F08957D
:10075000AA1BBB1B51E107C0AA1FBB1FA617B707E7
:1007600010F0A61BB70B881F991F5A95A9F7809503
:0C0770009095BC01CD010895F894FFCFD6
:06077C00EEDDCCBBAA007B
:00000001FF
