:100000000C9434000C9446000C9446000C9446006A
:100010000C9446000C9446000C9446000C94460048
:100020000C9446000C9446000C9446000C94460038
:100030000C9446000C9446000C9446000C94460028
:100040000C9446000C9446000C9446000C94460018
:100050000C9446000C9446000C9446000C94460008
:100060000C9446000C94460011241FBECFEFD8E03C
:10007000DEBFCDBF21E0A0E0B1E001C01D92A930FC
:10008000B207E1F70E949B020C9406030C94000057
:1000900084B18E6284B98CB581658CBD2A9A299809
:1000A00008958EBD0DB407FEFDCF8EB5089595E37E
:1000B0009A95F1F700002A9895E39A95F1F70000D8
:1000C0000E94510085E38A95F1F700008FEF0E94AE
:1000D000510095E39A95F1F700002A9A0895CF927E
:1000E000DF92EF92FF920F931F93CF93DF93082F2E
:1000F000162F6A01E22E813009F4105E85E38A959D
:10010000F1F700002A9885E38A95F1F70000812F26
:100110000E94510085E38A95F1F70000D0E0C0E02D
:10012000F12CCE15DF0564F02A9A80E091E0DF9192
:10013000CF911F910F91FF90EF90DF90CF90089596
:1001400001110FC0103A69F08FEF0E945100FE01BB
:10015000E050FF4F808385E38A95F1F700002196F8
:10016000E0CFF601EC0FFD1F80810E945100F3CF1C
:100170001F93CF93DF9300D000D01F92CDB7DEB78F
:100180002FEF81EE94E0215080409040E1F700C0D5
:10019000000011E0198321E0AE014F5F5F4F61E085
:1001A00081E00E946F008FE2898321E0AE014F5F02
:1001B0005F4F64E081E00E946F00198321E0AE018F
:1001C0004F5F5F4F62E081E00E946F0083E08983B0
:1001D00021E0AE014F5F5F4F63E081E00E946F005E
:1001E000198321E0AE014F5F5F4F65E081E00E941F
:1001F0006F0087E0898321E0AE014F5F5F4F66E0CB
:1002000081E00E946F0012E119831A831B831C8313
:100210001D8325E0AE014F5F5F4F6AE081E00E94E1
:100220006F0019831A831B831C831D8325E0AE0195
:100230004F5F5F4F60E181E00E946F0085E089833E
:1002400021E0AE014F5F5F4F61E181E00E946F00EE
:100250008EE1898321E0AE014F5F5F4F60E081E076
:100260000E946F002FEF81EE94E02150804090407B
:10027000E1F700C000000F900F900F900F900F90CB
:10028000DF91CF911F9108951F93CF93DF9300D0FB
:1002900000D01F92CDB7DEB72FEF81EE94E0215052
:1002A00080409040E1F700C0000011E0198321E098
:1002B000AE014F5F5F4F61E081E00E946F008FE20F
:1002C000898321E0AE014F5F5F4F64E081E00E94CF
:1002D0006F00198321E0AE014F5F5F4F62E081E064
:1002E0000E946F0083E0898321E0AE014F5F5F4F82
:1002F00063E081E00E946F00198321E0AE014F5F4F
:100300005F4F65E081E00E946F0087E0898321E014
:10031000AE014F5F5F4F66E081E00E946F0012E127
:1003200019831A831B831C831D8325E0AE014F5F55
:100330005F4F6AE081E00E946F0019831A831B837C
:100340001C831D8325E0AE014F5F5F4F60E181E0BC
:100350000E946F0085E0898321E0AE014F5F5F4F0F
:1003600061E181E00E946F008FE1898321E0AE01AD
:100370004F5F5F4F60E081E00E946F002FEF81EEE2
:1003800094E0215080409040E1F700C000000F90C1
:100390000F900F900F900F90DF91CF911F910895C4
:1003A000CF93DF93EC0120E0AC0161EE80E00E948E
:1003B0006F0025E0AE0160EA80E00E946F008FE3ED
:1003C0009CE90197F1F700C00000299A9AE69A95F6
:1003D000F1F700C029988FE39CE90197F1F700C07D
:1003E0000000DF91CF910895299A2FEF83ED90E3DC
:1003F000215080409040E1F700C000002998089506
:1004000085E38A95F1F700002A9885E38A95F1F74C
:10041000000087E20E94510085E38A95F1F7000011
:1004200080E70E94510085E38A95F1F700002A9A3F
:1004300008959093C500E4ECF0E0808388E1809318
:10044000C1008EE08093C20087E68083089580918A
:10045000C00087FFFCCF8091C60008959091C00036
:1004600095FFFCCF8093C60008958091C00087FF60
:1004700008958091C600F9CFAF92BF92CF92DF92DC
:10048000EF92FF920F931F93CF93DF93CDB7DEB719
:1004900028970FB6F894DEBF0FBECDBF6C01BE012A
:1004A0006F5F7F4F7B0188E0DB011D928A95E9F742
:1004B0008B0130E020E0E1E0F0E04AE09AE0A92E94
:1004C000B12CC601BF010E94DE02CB010097D9F416
:1004D000220F331F8701020F131F0E151F0519F579
:1004E0008AE028960FB6F894DEBF0FBECDBFDF912D
:1004F000CF911F910F91FF90EF90DF90CF90BF9021
:10050000AF900C942E02BF01469FF001479FF00D63
:100510001124B5010E94DE02D8018D939D938D01B7
:100520002F5F3F4FCECF02501109F8018081805DCF
:100530000E942E02D2CF87E090E00E9419020E9412
:1005400048000E94440184E5D0E0C0E088838983AC
:100550008A838B838C830E94F40187E00E9457007A
:1005600086FFF9CF409107015091080125E061E62F
:1005700080E00E946F009093080180930701299802
:1005800025E0AE0161E680E00E946F00EC010E9470
:1005900000028E017E0185E0E80EF11CF8018191D8
:1005A0008F0190E00E943C020E151F05B9F782E50D
:1005B0000E942E028AE00E942E02CDCF97FB072ECA
:1005C00016F4009407D077FD09D00E94F20207FCD0
:1005D00005D03EF4909581959F4F08957095619553
:1005E0007F4F0895AA1BBB1B51E107C0AA1FBB1F69
:1005F000A617B70710F0A61BB70B881F991F5A95AF
:10060000A9F780959095BC01CD010895F894FFCF8E
:00000001FF
