:100000000C9434000C943E000C943E000C943E0082
:100010000C943E000C943E000C943E000C943E0068
:100020000C943E000C943E000C943E000C943E0058
:100030000C943E000C943E000C943E000C943E0048
:100040000C943E000C943E000C943E000C943E0038
:100050000C943E000C943E000C943E000C943E0028
:100060000C943E000C943E0011241FBECFEFD8E04C
:10007000DEBFCDBF0E9481000C94D4000C94000020
:100080009093C500E4ECF0E0808388E18093C100A8
:100090008EE08093C20087E6808308959091C0002F
:1000A00095FFFCCF8093C60008958CE284B981E56A
:1000B0008CBD08952A9886E08EBD0DB407FEFDCF55
:1000C0002A9A8EB50895259A2A988EBD2D9A0DB438
:1000D00007FEFDCF2A9A2D98089580E184B980E427
:1000E0008CBD08950DB407FEFDCF8EB50895219AFD
:1000F0008EBD299A2A99FECF0DB407FEFDCF29980F
:10010000089587E090E00E9440000E9455008DE431
:100110000E944E0084E50E944E0082E40E944E0040
:100120008AE00E944E008DE40E9463008DE40E94EC
:100130004E0084E50E944E0085E40E944E008AE055
:100140000E944E002FEF89E698E1215080409040B8
:10015000E1F700C000008DE40E944E0082E50E949D
:100160004E0082E40E944E008AE00E944E000E94EF
:100170005A000E944E008AE00E944E008DE40E94C8
:100180004E0082E50E944E0085E40E944E008AE007
:100190000E944E002FEF89E698E121508040904068
:0C01A000E1F700C00000B3CFF894FFCFDF
:00000001FF
