:100000000C9434000C943E000C943E000C943E0082
:100010000C943E000C943E000C943E000C943E0068
:100020000C943E000C943E000C943E000C943E0058
:100030000C943E000C943E000C943E000C943E0048
:100040000C943E000C943E000C943E000C943E0038
:100050000C943E000C943E000C943E000C943E0028
:100060000C943E000C943E0011241FBECFEFD8E04C
:10007000DEBFCDBF0E9454000C9466000C940000BB
:1000800088E284B981E58CBD08958EBD0DB407FE6C
:10009000FDCF089580E184B980E48CBD08950DB44E
:1000A00007FEFDCF8EB508950E94400081E40E94B6
:1000B00045008AE00E9445002FEF87EA91E6215033
:1000C00080409040E1F700C00000F0CFF894FFCFEF
:00000001FF
