:100000000C9434000C943E000C943E000C943E0082
:100010000C943E000C943E000C943E000C943E0068
:100020000C943E000C943E000C943E000C943E0058
:100030000C943E000C943E000C943E000C943E0048
:100040000C943E000C943E000C943E000C943E0038
:100050000C943E000C943E000C943E000C943E0028
:100060000C943E000C943E0011241FBECFEFD8E04C
:10007000DEBFCDBF0E9480000C94CA000C9400002B
:100080009093C500E4ECF0E0808388E18093C100A8
:100090008EE08093C20087E6808308959091C0002F
:1000A00095FFFCCF8093C60008958CE284B981E56A
:1000B0008CBD08952A988BE48EBD0DB407FEFDCF4C
:1000C0002A9A8EB50895219A2A988EBD299A0DB440
:1000D00007FEFDCF2A9A2998089580E184B980E42B
:1000E0008CBD089587E58EBD0DB407FEFDCF8EB59E
:1000F00008958EBD2A99FECF0DB407FEFDCF089559
:100100000E946D0087E090E00E94400083E50E941D
:100110004E0082E50E944E0082E40E944E008AE07A
:100120000E944E000E9472000E944E008AE00E94CF
:100130004E0083E50E944E0082E50E944E0085E459
:100140000E944E008AE00E944E0083E50E944E000D
:1001500084E50E944E0082E40E944E008AE00E94E4
:100160004E0083E50E94790083E50E944E0084E5FD
:100170000E944E0085E40E944E008AE00E944E00DC
:100180002FEF80E792E0215080409040E1F700C0DF
:080190000000BCCFF894FFCF82
:00000001FF
