:100000000C9434000C943E000C943E000C943E0082
:100010000C943E000C943E000C943E000C943E0068
:100020000C943E000C943E000C943E000C943E0058
:100030000C943E000C943E000C943E000C943E0048
:100040000C943E000C943E000C943E000C943E0038
:100050000C943E000C943E000C943E000C943E0028
:100060000C943E000C943E0011241FBECFEFD8E04C
:10007000DEBFCDBF0E9483000C94CD000C94000025
:100080009093C500E4ECF0E0808388E18093C100A8
:100090008EE08093C20087E6808308959091C0002F
:1000A00095FFFCCF8093C60008958CE284B981E56A
:1000B0008CBD08952A9886E08EBD0DB407FEFDCF55
:1000C0002A9A8EB50895259A2A988EBD2D9A0DB438
:1000D00007FEFDCF2A9A2D98089580E184B980E427
:1000E0008CBD089586E08EBD0DB407FEFDCF8EB5A4
:1000F0000895219A8EBD299A2A99FECF0DB407FE44
:10010000FDCF299808950E946D0087E090E00E943D
:10011000400083E50E944E0082E50E944E0082E48A
:100120000E944E008AE00E944E000E9472000E94CF
:100130004E008AE00E944E0083E50E944E0082E558
:100140000E944E0085E40E944E008AE00E944E000C
:1001500083E50E944E0084E50E944E0082E40E94E6
:100160004E008AE00E944E0083E50E94790083E5FC
:100170000E944E0084E50E944E0085E40E944E00DD
:100180008AE00E944E002FEF89E698E121508040DE
:0E0190009040E1F700C00000BCCFF894FFCF14
:00000001FF
