:100000000C9434000C943E000C943E000C943E0082
:100010000C943E000C943E000C943E000C943E0068
:100020000C943E000C943E000C943E000C943E0058
:100030000C943E000C943E000C943E000C943E0048
:100040000C943E000C943E000C943E000C943E0038
:100050000C943E000C943E000C943E000C943E0028
:100060000C943E000C943E0011241FBECFEFD8E04C
:10007000DEBFCDBF0E9463000C949E000C94000074
:100080009093C500E4ECF0E0808388E18093C100A8
:100090008EE08093C20087E6808308958091C0003F
:1000A00087FFFCCF8091C60008959091C00095FF16
:1000B000FCCF8093C60008958091C00087FF08950B
:1000C0008091C600F9CF87E090E00E94400087E46D
:1000D0000E94550089E40E94550086E50E94550063
:1000E00085E40E94550080E20E9455008DE40E9444
:1000F000550085E40E94550080E20E94550082E48C
:100100000E94550081E40E9455008DE40E94550034
:1001100082E40E9455008FE40E9455008FE40E9403
:1001200055008AE00E9455002FEF87EA91E62150A2
:1001300080409040E1F700C00000C9CFF894FFCFA5
:00000001FF
