:100000000C9434000C943E000C943E000C943E0082
:100010000C943E000C943E000C943E000C943E0068
:100020000C943E000C943E000C943E000C943E0058
:100030000C943E000C943E000C943E000C943E0048
:100040000C943E000C943E000C943E000C943E0038
:100050000C943E000C943E000C943E000C943E0028
:100060000C943E000C943E0011241FBECFEFD8E04C
:10007000DEBFCDBF0E948E000C94BD000C9400002A
:100080008CE284B981E58CBD08952A988BE48EBDFD
:100090000DB407FEFDCF2A9A8EB50895219A2A98AD
:1000A0008EBD299A0DB407FEFDCF2A9A299808958E
:1000B00080E184B980E48CBD089587E58EBD0DB4E0
:1000C00007FEFDCF8EB508958EBD1A99FECF0DB4F3
:1000D00007FEFDCF08959093C500E4ECF0E0808327
:1000E00088E18093C1008EE08093C20087E6808320
:1000F00008958091C00087FFFCCF8091C6000895CD
:100100009091C00095FFFCCF8093C6000895809128
:10011000C00087FF08958091C600F9CF87E090E086
:100120000E946B000E9440008DE40E94800082E5E6
:100130000E94800082E40E9480008AE00E94800089
:100140000E9445000E9480008AE00E9480008DE4A9
:100150000E94800082E50E94800085E40E94800069
:100160008AE00E9480002FEF81EE94E021508040D1
:0E0170009040E1F700C00000D7CFF894FFCF19
:00000001FF
