:100000000C9434000C943E000C943E000C943E0082
:100010000C943E000C943E000C943E000C943E0068
:100020000C943E000C943E000C943E000C943E0058
:100030000C943E000C943E000C943E000C943E0048
:100040000C943E000C943E000C943E000C943E0038
:100050000C943E000C943E000C943E000C943E0028
:100060000C943E000C943E0011241FBECFEFD8E04C
:10007000DEBFCDBF0E9455000C947C000C940000A4
:100080009093C500E4ECF0E0808388E18093C100A8
:100090008EE08093C20087E6808308959091C0002F
:1000A00095FFFCCF8093C600089587E090E00E9402
:1000B000400084B1837C84B94A9B10C087E50E94CC
:1000C0004E008AE00E944E002FEF87E893E1215016
:1000D00080409040E1F700C00000EECF4B9B02C093
:1000E00081E4EDCF4C9B02C083E5E9CF4D9B02C07C
:0C00F00084E4E5CF85E4E3CFF894FFCF73
:00000001FF
