:100000000C9434000C943E000C943E000C943E0082
:100010000C943E000C943E000C943E000C943E0068
:100020000C943E000C943E000C943E000C943E0058
:100030000C943E000C943E000C943E000C943E0048
:100040000C943E000C943E000C943E000C943E0038
:100050000C943E000C943E000C943E000C943E0028
:100060000C943E000C943E0011241FBECFEFD8E04C
:10007000DEBFCDBF0E948E000C94C9000C9400001E
:100080008CE284B981E58CBD08952A988BE48EBDFD
:100090000DB407FEFDCF2A9A8EB50895219A2A98AD
:1000A0008EBD299A0DB407FEFDCF2A9A299808958E
:1000B00080E184B980E48CBD089587E58EBD0DB4E0
:1000C00007FEFDCF8EB508958EBD1A99FECF0DB4F3
:1000D00007FEFDCF08959093C500E4ECF0E0808327
:1000E00088E18093C1008EE08093C20087E6808320
:1000F00008958091C00087FFFCCF8091C6000895CD
:100100009091C00095FFFCCF8093C6000895809128
:10011000C00087FF08958091C600F9CF84B1837C29
:1001200084B90E94580087E090E00E946B004A9BCF
:100130000AC087E50E9480008AE00E94800087E56F
:100140000E946400F4CF4B9B08C081E40E948000B1
:100150008AE00E94800081E4F3CF4C9B08C083E5D5
:100160000E9480008AE00E94800083E5E9CF4D9BD9
:1001700008C084E40E9480008AE00E94800084E439
:10018000DFCF85E40E9480008AE00E94800085E441
:06019000D7CFF894FFCF69
:00000001FF
